:060000000A128A110C280F
:10000800FE00030EF2000A08F3000A128A11EE2C11
:100018000A128A110F2883136330FD000630FE0090
:100028001D30FF005C3084000A128A11CA25E301E2
:10003800E401E501E601F601F701F801F9018301A0
:100048000A128A11FC28FF0000308A007F08820704
:100058002C280A128A11242E0A128A11E52B0A1258
:100068008A1139280A128A11602CD11F3D280130C3
:100078003E280030D3005308D700570803194928F1
:10008800D009D109D00A0319D10A4F08D30053085F
:10009800A1004E080A128A11D7250A128A111030B7
:1000A800D8002730D9000530D3005308D6005908A6
:1000B800803AFF0080307F02031D64280130580217
:1000C800031C9B28831203135908A1005808A00099
:1000D8005108A3005008A2000A128A11B0220A127D
:1000E8008A1120082104031D9B280130D6020A30FA
:1000F800A0000030A1005908A3005808A2000A1265
:100108008A11B0220A128A112108D9002008D800C1
:100118005B280230831203135202031CAD282030DF
:100128000A128A11C5240A128A110130D2028312D6
:10013800031356085707D300D401D40D5408803A46
:10014800D50080305502031DAB2852085302031C0A
:100158008D288312031357080319B8282D300A1263
:100168008A11C5240A128A11831203135908A1009F
:100178005808A0005108A3005008A2000A128A11CA
:10018800B0220A128A112008303E0A128A11C524A8
:100198000A128A115908A1005808A0005108A300A2
:1001A8005008A2000A128A115B230A128A11210838
:1001B800D1002008D0000A30A0000030A100590862
:1001C800A3005808A2000A128A11B0220A128A1142
:1001D8002108D9002008D8005908803AFF0080304B
:1001E8007F02031DF92801305802031C0800B828B3
:1001F8005C080A128A1127200A128A110A128A1127
:1002080067250A128A111230DA005A08A4005D081C
:100218000A128A1127200A128A11CE01CE0ACF01AA
:10022800CF0A0A128A119D250A128A112808D100BC
:100238002708D0000330DA005A08D2005F080A12F3
:100248008A1127200A128A1183120313CE01CE0ABB
:100258000630DA005A08CF000A128A1109230A1256
:100268008A114708D1004608D0000330DB005B083C
:10027800D2005F080A128A1127200A128A118312F3
:100288000313CE01CE0A0B30DA005A08CF000A1247
:100298008A113F250A128A112C08D1002B08D00098
:1002A8000330DB005B08D2005F080A128A1127209E
:1002B8000A128A118830F4001330F5000A128A11E4
:1002C800B3250A128A110A128A1124260A128A11DF
:1002D8000130DA005A08A4005D080A128A112720A2
:1002E8000A128A11CE01CE0A0330DA005A08CF006A
:1002F8000A128A1193240A128A114708D100460863
:10030800D0000330DB005B08D2005F080A128A11B4
:1003180027200A128A1183120313CE01CE0A0A304B
:10032800DA005A08CF000A128A1106260A128A1120
:100338002C08D1002B08D0000330DB005B08D2006A
:100348005F080A128A1127200A128A118830F400DD
:100358001330F5000A128A11B3250A128A110A12FB
:100368008A1124260A128A110729C101BA1FC9292C
:10037800B709B809B909BA09B70A0319B80A0319B4
:10038800B90A0319BA0AC101C10ABE1FDA29BB0991
:10039800BC09BD09BE09BB0A0319BC0A0319BD0A79
:1003A8000319BE0A0130BF003F08C1060030C5006E
:1003B8000030C4000030C3000030C2003A083904DD
:1003C8003804370403192F2AC001C00ABA1BFA29B6
:1003D8000130BF000310B70DB80DB90DBA0DBF0B32
:1003E800EE290130BF003F08C007EA290130BF00ED
:1003F8000310C20DC30DC40DC50DBF0BFC293A086F
:100408003E02031D112A39083D02031D112A38082E
:100418003C02031D112A37083B02031C222A370815
:10042800BB023808031C380FBC023908031C390FFB
:10043800BD023A08031C3A0FBE02421401300310F1
:10044800BA0CB90CB80CB70CFF3E031D232A0130B7
:10045800C002031DFA29410803193D2AC209C3092C
:10046800C409C509C20A0319C30A0319C40A03192E
:10047800C50A4508BA004408B9004308B80042084C
:10048800B700080083120313A00008122008F40024
:1004980004300310F40CFF3E031D4D2A08087406AF
:1004A800F039740688008812200303195F2A023085
:1004B8002006031D692A0330F5009730F400F40B79
:1004C800632AF50B632A682A6D2A0D30F400F40BB1
:1004D8006B2A831203138816F0302005F4002030AD
:1004E8007406031D8D2A08122008F4000430031036
:1004F800F40CFF3E031D7B2A08087406F0397406C5
:10050800880088120D30F400F40B882A8312031334
:10051800881608120F302005F40008087406F03910
:10052800740688008812200303199E2A02302006C8
:10053800031DA82A0330F5009730F400F40BA22A13
:10054800F50BA22AA72AAC2A0D30F400F40BAA2A2C
:100558008312031388160800A501A11FBA2AA0094F
:10056800A109A00A0319A10AA501A50AA31FC52A62
:10057800A209A309A20A0319A30A0130F400740806
:10058800A506A601A701200821040319FC2AA40135
:10059800A40AA11BDB2A01300310A00DA10DFF3E08
:1005A800031DD02A0130F4007408A407CD2A0130B5
:1005B8000310A60DA70DFF3E031DDC2A2108230208
:1005C800031DE82A20082202031CF12A2008A2029F
:1005D8002108031CA303A302261401300310A10C55
:1005E800A00CFF3E031DF22A0130A402031DDB2AE2
:1005F80025080319042BA609A709A60A0319A70A9F
:100608002708A1002608A00008002030CA000030F2
:10061800CB000030CC000030CD000030BA000030F4
:10062800B9000030B8000530B7000A128A119D25BC
:100638000A128A112A08AE002908AD002808AC0061
:100648002708AB000030B2000030B1000030B00025
:100658000930AF000A128A11A6230A128A112E083D
:10066800BE002D08BD002C08BC002B08BB000A12D8
:100678008A11B9210A128A113708CA0738080318DB
:10068800380F472B482BCB0739080318390F4D2B48
:100698004E2BCC073A0803183A0ACD074D08C90073
:1006A8004C08C8004B08C7004A08C6000800A50146
:1006B800A31F652BA209A309A20A0319A30AA5016E
:1006C800A50AA11F6C2BA009A109A00A0319A10A58
:1006D800200821040319992BA401A40AA11B802B2B
:1006E80001300310A00DA10DFF3E031D752B013035
:1006F800F4007408A407722B21082302031D862B1B
:1007080020082202031C8E2B2008A2022108031CA9
:10071800A303A30201300310A10CA00CFF3E031D8C
:100728008F2B0130A402031D802B25080319A12B50
:10073800A209A309A20A0319A30A2308A1002208EF
:10074800A00008000030B6000030B5000030B4004A
:100758000030B3002B1CC42B2F08B307300803113B
:100768000318013E031DB407310803110318013EA5
:10077800031DB507320803110318013E031DB60710
:100788000130F5000310AF0DB00DB10DB20DF50B32
:10079800C62B01300310AE0CAD0CAC0CAB0CFF3EFD
:1007A800031DCE2B2E082D042C042B04031DAE2B69
:1007B8003608AE003508AD003408AC003308AB008D
:1007C80008006430F4000030F5000A128A11B325DD
:1007D8000A128A1183160313081088100811881149
:1007E80008128812081788176430F4000030F500E2
:1007F8000A128A11B3250A128A1183120313881662
:1008080028300A128A1146220A128A110C300A125A
:100818008A1146220A128A1101300A128A114622C6
:100828000A128A1102300A128A1146220A128A1101
:100838006430F4000030F5000A128A11B32508006C
:10084800A501A6012008210403195B2CA401A40A10
:10085800A11B3A2C01300310A00DA10DFF3E031D72
:100868002F2C0130F4007408A4072C2C013003103D
:10087800A50DA60DFF3E031D3B2C21082302031DD9
:10088800472C20082202031C502C2008A202210811
:10089800031CA303A302251401300310A10CA00C10
:1008A800FF3E031D512C0130A402031D3A2C2608DB
:1008B800A1002508A0000800A10100300A128A1131
:1008C800D7250A128A11240884000A128A111725CA
:1008D8000A128A11003A03190800240884000A122F
:1008E8008A1117250A128A110A3A031D822CA101BE
:1008F80001300A128A11D7250A128A1124088400A5
:100908000A128A1117250A128A110A128A11C52495
:100918000A128A110130A5002508A407672C0030A7
:10092800BA000030B9000030B8000530B7000A122C
:100938008A119D250A128A112708CA002808CB00A7
:100948002908CC002A08CD0002300310CA0DCB0DAF
:10095800CC0DCD0DFF3E031DA92C4D08BE004C0843
:10096800BD004B08BC004A08BB000A128A11B92115
:100978003A08C9003908C8003808C7003708C6004F
:100988000800F50008167508F40004300310F40C8C
:10099800FF3E031DCA2C08087406F0397406880047
:1009A80088120D30F400F40BD72C83120313881629
:1009B80008160F307505F40008087406F039740637
:1009C800880088120D30F400F40BE82C831203130E
:1009D800881608000B1DF62C0B110A128A11F72530
:1009E8000A128A11831203130C1C002D0C100A1210
:1009F8008A11E8250A128A118C1C082D8C100A12FB
:100A08008A1112260A128A110C1F102D0C130A12B1
:100A18008A1182250A128A1173088A00720E8300CD
:100A2800FE0E7E0E090005308A000408840A82073B
:100A38000034523465343A3420342034203420349D
:100A48002034523461343A34203420342034203471
:100A58002034003443343A342034203420344634AB
:100A68003A342034203420344B343A34203420347F
:100A78002034203400341130AF000130B000003091
:100A8800B1000030B2000A128A119D250A128A119B
:100A98002708AF0728080318280F532D542DB0072F
:100AA80029080318290F592D5A2DB1072A080318A8
:100AB8002A0AB2073208AE003108AD003008AC008F
:100AC8002F08AB0008008B13831603170814831232
:100AD80003131F083F3980389F0083161F129F1287
:100AE800C33083129F0583169F1783121F140B1799
:100AF80083160C178B1783129F1408001E08F0002A
:100B0800F1017008E5007108E60008300310E50DF2
:100B1800E60DFF3E031D8A2D83161E08F000F10125
:100B280070088312E5070318E60A7108E6079F14A0
:100B380008000A30A0000030A1006608A30065087C
:100B4800A2000A128A1124242008CD3EA7002108F9
:100B58000318013EFF3EA800A901AA010800740875
:100B6800750403190800C73083120313A000BC2DB5
:100B7800A00BBB2DBF2D0130F4020030031CF50380
:100B8800F502B32D7E088A007F088200C6250A1266
:100B98008A118000840A04087D0603190034FF0ABC
:100BA8000319FE0ACA2DA3002308A2000630031069
:100BB800A20DFF3E031DDB2D210822077F39803E51
:100BC8000A128A1146220800FC308F0018308E0065
:100BD80076087704031908000130F6020030031C78
:100BE800F703F70208000630831203138100780820
:100BF8007904031908000130F8020030031CF903D6
:100C0800F90208000A128A119D250030AE00003052
:100C1800AD000030AC004330AB000800630864044A
:100C2800031908000130E3020030031CE403E40266
:100C3800080004340A340034073401340034003422
:0A0C480001300A128A11462208004A
:04400E00D420FF3F7C
:00000001FF
