:020000040000FA
:060000000A128A110C280F
:10000800FE00030EF2000A08F3000A128A11392BC7
:100018000A128A110F2883133D30FD000430FE00B8
:100028005F30FF00363084000A128A1122240A1237
:100038008A11BD01BE01BF01C001F601F701F80137
:10004800F90183010A128A11FE2AFF0000308A0092
:100058007F0882072E280A128A11BD2A0A128A11DD
:1000680038280A128A11782A83120313AB1B3D28F9
:100078003F28013040280030AD002D08B10031087C
:100088000319472848284E28AA09AB09AA0A0319C0
:10009800AB0A4E282908AD002D08A10028080A122D
:1000A8008A11F5230A128A11103083120313B20041
:1000B8002730B3000530AD002D08B0009228831218
:1000C80003133308A1003208A0002B08A3002A0854
:1000D800A2000A128A11A0210A128A11831203139C
:1000E80020082104031D79287A28AC280130B002A1
:1000F8007E28AC280A30A0000030A1003308A300F5
:100108003208A2000A128A11A0210A128A11831247
:1001180003132108B3002008B20092283308803A5C
:10012800FF0080307F02031D9B2801303202031834
:100138009E289F286328AC28AC2820300A128A11F0
:1001480072230A128A11013083120313AC02AC28FD
:100158008312031330083107AD00AE01AE0D2E082F
:10016800803AAF0080302F02031DBC282C082D02D6
:100178000318BF28C028CA280230831203132C0290
:100188000318C728C828A128CA28CA288312031315
:1001980031080319D028D128D8282D300A128A11FD
:1001A80072230A128A11D828831203133308A10074
:1001B8003208A0002B08A3002A08A2000A128A11FC
:1001C800A0210A128A11831203132008303E0A1252
:1001D8008A1172230A128A11831203133308A100A9
:1001E8003208A0002B08A3002A08A2000A128A11CC
:1001F80013220A128A11831203132108AB00200864
:10020800AA000A30A0000030A1003308A300320879
:10021800A2000A128A11A0210A128A11831203135A
:100228002108B3002008B2003308803AFF0080306C
:100238007F02031D212901303202031824292529B0
:10024800D8282629080083120313A00008122008C2
:10025800F40004300310F40CFF3E031D2E29080897
:100268007406F039740688008812200303193D29A2
:100278003E29452902302006031D432944294F29D8
:1002880045290330F5009730F400F40B4929F50BA4
:1002980049294E2954290D30F400F40B51295429C9
:1002A800831203138816F0302005F40020307406FA
:1002B800031D5F296029772908122008F4000430FB
:1002C8000310F40CFF3E031D642908087406F03976
:1002D8007406880088120D30F400F40B712983121B
:1002E80003138816772908120F302005F400080830
:1002F8007406F039740688008812200303198529CA
:1003080086298D2902302006031D8B298C299729DF
:100318008D290330F5009730F400F40B9129F50B83
:10032800912996299C290D30F400F40B99299C29D0
:10033800831203138816080083120313A501A11F53
:10034800A629A729AF29A009A109A00A0319A10A6A
:10035800A501A50AAF29A31FB229B329BD29A2095E
:10036800A309A20A0319A30A0130F4007408A50618
:10037800BD29A601A701200821040319C429C529FC
:10038800022AA401A40AD42901300310A00DA10D4A
:10039800FF3E031DC9290130F4007408A407D429BD
:1003A800A11FD729D829C829DA29DA290130031049
:1003B800A60DA70DFF3E031DDB2921082302031DFF
:1003C800E72920082202031CEA29EB29F32920083F
:1003D800A2022108031CA303A3022614F329013057
:1003E8000310A10CA00CFF3E031DF4290130A40248
:1003F800031DFF29002ADA29022A022A25080319DF
:10040800062A072A0D2AA609A709A60A0319A70A70
:100418000D2A2708A1002608A000122A0800831226
:100428000313A501A31F192A1A2A222AA209A3091C
:10043800A20A0319A30AA501A50A222AA11F252A8F
:10044800262A2C2AA009A109A00A0319A10A2C2AE4
:10045800200821040319312A322A672AA401A40A90
:10046800412A01300310A00DA10DFF3E031D362ABD
:100478000130F4007408A407412AA11F442A452A20
:10048800352A472A472A21082302031D4D2A200816
:100498002202031C502A512A582A2008A2022108A5
:1004A800031CA303A302582A01300310A10CA00CBB
:1004B800FF3E031D592A0130A402031D642A652A40
:1004C800472A672A672A250803196B2A6C2A722A81
:1004D800A209A309A20A0319A30A722A2308A100E0
:1004E8002208A000772A080083120313A101003014
:1004F8000A128A11F5230A128A11AD2A83120313EC
:10050800240884000A128A1153240A128A110A3A0A
:10051800031D8F2A902A982AA10101300A128A11F4
:10052800F5230A128A11982A8312031324088400D7
:100538000A128A1153240A128A110A128A11722382
:100548000A128A11013083120313A5002508A40793
:10055800AD2A83120313240884000A128A11532433
:100568000A128A11003A031DBA2ABB2A822ABC2A17
:1005780008006430F4000030F5000A128A11DD2307
:100588000A128A118316031308108810081188119B
:1005980008128812081788176430F4000030F50034
:1005A8000A128A11DD230A128A118312031388168C
:1005B80028300A128A1127210A128A110C300A12CD
:1005C8008A1127210A128A1101300A128A11272159
:1005D8000A128A1102300A128A1127210A128A1174
:1005E8006430F4000030F5000A128A11DD230A1283
:1005F8008A1108008312031336080A128A11292067
:100608000A128A110A128A119D230A128A110130CC
:1006180083120313B4003408A40037080A128A119D
:1006280029200A128A11182B83120313A8010530F6
:10063800B4003408A9000A128A1166240A128A1121
:10064800750883120313AB007408AA000430B500C0
:100658003508AC0039080A128A1129200A128A11B1
:10066800182B182B0A128A110C280B1D3C2B3D2B1A
:10067800442B0B110A128A1131240A128A11442BB5
:10068800831203130C1C492B4A2B512B0C100A12F2
:100698008A110A240A128A11512B831203138C1C03
:1006A800562B572B5E2B8C100A128A1143240A12E0
:1006B8008A115E2B831203130C1F632B642B6B2B85
:1006C8000C130A128A11BE230A128A116B2B7308A3
:1006D8008A00720E8300FE0E7E0E0900F50083125A
:1006E800031308167508F40004300310F40CFF3ED9
:1006F800031D792B08087406F039740688008812DF
:100708000D30F400F40B862B831203138816081699
:100718000F307505F40008087406F039740688006F
:1007280088120D30F400F40B972B831203138816EC
:1007380008008B13831603170814831203131F086A
:100748003F3980389F00831603131F129F12C3304E
:10075800831203139F05831603139F178312031332
:100768001F140B17831603130C178B17831203130D
:100778009F140800831203131E08F000F10170088B
:10078800F8007108F90008300310F80DF90DFF3E64
:10079800031DC82B831603131E08F000F10170080F
:1007A800F8070318F90A7108F907831203139F144D
:1007B8000800ED2BC73083120313A000E32BA00B16
:1007C800E22BE62B0130F4020030031CF503F5029E
:1007D800ED2B74087504031DF22BF32BDE2BF42B81
:1007E800080083120313A3002308A2000630031095
:1007F800A20DFF3E031DFB2B210822077F39803EF7
:100808000A128A1127210A128A110800FC30831261
:1008180003138F0018308E003F0840040319152C6D
:10082800162C1D2C0130BF020030031CC003C0026F
:100838001D2C08007E088A007F0882000A128A118F
:100848001E240A128A118000840A04087D060319EE
:100858000034FF0A0319FE0A222C06308312031300
:1008680081007608770403193A2C3B2C422C01307E
:10087800F6020030031CF703F702422C080083122B
:1008880003133D083E0403194A2C4B2C522C01300B
:10089800BD020030031CBE03BE02522C0800043007
:1008A8008A000408840A82070034413444344334FB
:1008B8003A3420340034013407340034043400342A
:1008C800003400347908F5007808F4006B2C08002F
:04400E00D4E0FFFFFC
:00000001FF
