:020000040000FA
:060000000A128A110C280F
:10000800FE00030EF2000A08F3000A128A110C2DF2
:100018000A128A110F2883136330FD000630FE0090
:100028008630FF005C3084000A128A1155260A12B5
:100038008A11E301E401E501E601F601F701F8019F
:10004800F90183010A128A11462AFF0000308A004A
:100058007F0882072E280A128A11CB2C0A128A11CD
:1000680038280A128A11862C83120313D11B3D28C3
:100078003F28013040280030D3005308D7005708E4
:100088000319472848284E28D009D109D00A03194E
:10009800D10A4E284F08D3005308A1004E080A126F
:1000A8008A1128260A128A11103083120313D800E5
:1000B8002730D9000530D3005308D6009228831280
:1000C80003135908A1005808A0005108A3005008BC
:1000D800A2000A128A11BA220A128A118312031381
:1000E80020082104031D79287A28AC280130D6027B
:1000F8007E28AC280A30A0000030A1005908A300CF
:100108005808A2000A128A11BA220A128A11831206
:1001180003132108D9002008D80092285908803AEA
:10012800FF0080307F02031D9B280130580203180E
:100138009E289F286328AC28AC2820300A128A11F0
:1001480072250A128A11013083120313D202AC28D5
:100158008312031356085707D300D401D40D54084B
:10016800803AD50080305502031DBC28520853023E
:100178000318BF28C028CA2802308312031352026A
:100188000318C728C828A128CA28CA288312031315
:1001980057080319D028D128D8282D300A128A11D7
:1001A80072250A128A11D828831203135908A1004C
:1001B8005808A0005108A3005008A2000A128A118A
:1001C800BA220A128A11831203132008303E0A1237
:1001D8008A1172250A128A11831203135908A10081
:1001E8005808A0005108A3005008A2000A128A115A
:1001F8002D230A128A11831203132108D100200823
:10020800D0000A30A0000030A1005908A300580807
:10021800A2000A128A11BA220A128A11831203133F
:100228002108D9002008D8005908803AFF008030FA
:100238007F02031D2129013058020318242925298A
:10024800D8282629080083120313C101BA1F2D29B3
:100258002E293B29B709B809B909BA09B70A0319F8
:10026800B80A0319B90A0319BA0AC101C10ABE1F9B
:100278003E293F294F29BB09BC09BD09BE09BB0A54
:100288000319BC0A0319BD0A0319BE0A0130BF00CD
:100298003F08C1064F290030C5000030C4000030B7
:1002A800C3000030C2003A0839043804370403197F
:1002B8005E295F29B229C001C00A70290130BF0038
:1002C8000310B70DB80DB90DBA0DBF0B6429013075
:1002D800BF003F08C0077029BA1F73297429622913
:1002E800762976290130BF000310C20DC30DC40D55
:1002F800C50DBF0B78293A083E02031D8D29390820
:100308003D02031D8D2938083C02031D8D2937083D
:100318003B02031C90299129A1293708BB02380800
:10032800031C380FBC023908031C390FBD023A08F8
:10033800031C3A0FBE024214A12901300310BA0C63
:10034800B90CB80CB70CFF3E031DA2290130C0023E
:10035800031DAF29B0297629B229B229410803190A
:10036800B629B729C329C209C309C409C509C20ADC
:100378000319C30A0319C40A0319C50AC32945087E
:10038800BA004408B9004308B8004208B700CC29AD
:10039800080083120313A00008122008F400043098
:1003A8000310F40CFF3E031DD42908087406F03925
:1003B80074068800881220030319E329E429EB292D
:1003C80002302006031DE929EA29F529EB29033023
:1003D800F5009730F400F40BEF29F50BEF29F42919
:1003E800FA290D30F400F40BF729FA2983120313C4
:1003F8008816F0302005F40020307406031D052A05
:10040800062A1D2A08122008F40004300310F40CF0
:10041800FF3E031D0A2A08087406F039740688008E
:1004280088120D30F400F40B172A83120313881670
:100438001D2A08120F302005F40008087406F03948
:10044800740688008812200303192B2A2C2A332AC1
:1004580002302006031D312A322A3D2A332A03306E
:10046800F5009730F400F40B372AF50B372A3C2AAD
:10047800422A0D30F400F40B3F2A422A8312031358
:1004880088160800831203135C080A128A112920AF
:100498000A128A110A128A119D250A128A1101303C
:1004A80083120313DA005A08A4005D080A128A119D
:1004B80029200A128A11602A83120313CE01CE0A58
:1004C800CF01CF0A0A128A11DD250A128A11831276
:1004D80003132808D1002708D0000330DA005A088F
:1004E800D2005F080A128A1129200A128A1183127F
:1004F8000313CE01CE0A0630DA005A08CF000A12DA
:100508008A1192230A128A11831203134708D10011
:100518004608D0000330DB005B08D2005F080A12EF
:100528008A1129200A128A1183120313CE01CE0AD6
:100538000B30DA005A08CF000A128A1145250A1230
:100548008A11831203132C08D1002B08D000033022
:10055800DB005B08D2005F080A128A1129200A1200
:100568008A11602A602A0A128A110C28831203133E
:10057800A501A11FC02AC12AC92AA009A109A00A48
:100588000319A10AA501A50AC92AA31FCC2ACD2AA5
:10059800D72AA209A309A20A0319A30A0130F40061
:1005A8007408A506D72AA601A70120082104031963
:1005B800DE2ADF2A1C2BA401A40AEE2A013003102C
:1005C800A00DA10DFF3E031DE32A0130F4007408BD
:1005D800A407EE2AA11FF12AF22AE22AF42AF42A11
:1005E80001300310A60DA70DFF3E031DF52A2108B3
:1005F8002302031D012B20082202031C042B052BB8
:100608000D2B2008A2022108031CA303A302261411
:100618000D2B01300310A10CA00CFF3E031D0E2B67
:100628000130A402031D192B1A2BF42A1C2B1C2B96
:1006380025080319202B212B272BA609A709A60A71
:100648000319A70A272B2708A1002608A0002C2B8E
:10065800080083120313A501A31F332B342B3C2B53
:10066800A209A309A20A0319A30AA501A50A3C2BFA
:10067800A11F3F2B402B462BA009A109A00A031953
:10068800A10A462B2008210403194B2B4C2B812B44
:10069800A401A40A5B2B01300310A00DA10DFF3E9D
:1006A800031D502B0130F4007408A4075B2BA11F15
:1006B8005E2B5F2B4F2B612B612B21082302031D1F
:1006C800672B20082202031C6A2B6B2B722B200835
:1006D800A2022108031CA303A302722B01300310FA
:1006E800A10CA00CFF3E031D732B0130A402031DB7
:1006F8007E2B7F2B612B812B812B25080319852BC2
:10070800862B8C2BA209A309A20A0319A30A8C2BF6
:100718002308A1002208A000912B08002030831292
:100728000313CA000030CB000030CC000030CD00ED
:100738000030BA000030B9000030B8000530B7000A
:100748000A128A11DD250A128A11831203132A0854
:10075800AE002908AD002808AC002708AB0000301F
:10076800B2000030B1000030B0000930AF000A120A
:100778008A113A240A128A11831203132E08BE0022
:100788002D08BD002C08BC002B08BB000A128A11DA
:1007980027210A128A11831203133708CA07380857
:1007A8000318380FD82BD92BCB0739080318390F62
:1007B800DE2BDF2BCC073A0803183A0ACD074D0881
:1007C800C9004C08C8004B08C7004A08C600EC2BF3
:1007D800080083120313A501A601200821040319A8
:1007E800F62BF72B342CA401A40A062C0130031095
:1007F800A00DA10DFF3E031DFB2B0130F400740872
:10080800A407062CA11F092C0A2CFA2B0C2C0C2C43
:1008180001300310A50DA60DFF3E031D0D2C210868
:100828002302031D192C20082202031C1C2C1D2C3A
:10083800252C2008A2022108031CA303A3022514C7
:10084800252C01300310A10CA00CFF3E031D262C03
:100858000130A402031D312C322C0C2C342C342CE6
:100868002608A1002508A000392C080000308312B2
:100878000313B6000030B5000030B4000030B300F8
:10088800452C2B1C482C492C612C2F08B307300809
:1008980003110318013E0319522CB4073108031140
:1008A8000318013E0319592CB50732080311031820
:1008B800013E0319602CB607612C0130F5000310C6
:1008C800AF0DB00DB10DB20DF50B632C0130031057
:1008D800AE0CAD0CAC0CAB0CFF3E031D6B2C2E0804
:1008E8002D042C042B04031D7A2C7B2C452C7C2CEA
:1008F8003608AE003508AD003408AC003308AB004C
:10090800852C080083120313A10100300A128A11F2
:1009180028260A128A11BB2C831203132408840088
:100928000A128A1112260A128A110A3A031D9D2CEC
:100938009E2CA62CA10101300A128A1128260A121F
:100948008A11A62C83120313240884000A128A1120
:1009580012260A128A110A128A1172250A128A119B
:10096800013083120313A5002508A407BB2C8312AA
:100978000313240884000A128A1112260A128A1103
:10098800003A031DC82CC92C902CCA2C08006430CE
:10099800F4000030F5000A128A11FA250A128A11A9
:1009A800831603130810881008118811081288127A
:1009B800081788176430F4000030F5000A128A110D
:1009C800FA250A128A1183120313881628300A128C
:1009D8008A11CD210A128A110C300A128A11CD21EE
:1009E8000A128A1101300A128A11CD210A128A11BB
:1009F80002300A128A11CD210A128A116430F400D9
:100A08000030F5000A128A11FA250A128A11080024
:100A18000B1D0F2D102D172D0B110A128A1164268C
:100A28000A128A11172D831203130C1C1C2D1D2D5D
:100A3800242D0C100A128A113D260A128A11242D1F
:100A4800831203138C1C292D2A2D312D8C100A1288
:100A58008A1176260A128A11312D831203130C1F6C
:100A6800362D372D3E2D0C130A128A11BE250A1277
:100A78008A113E2D73088A00720E8300FE0E7E0EC8
:100A88000900113083120313AF000130B0000030A9
:100A9800B1000030B2000A128A11DD250A128A114B
:100AA800831203132708AF0728080318280F5D2DA2
:100AB8005E2DB00729080318290F632D642DB1078F
:100AC8002A0803182A0AB2073208AE003108AD0016
:100AD8003008AC002F08AB00712D0800F500831218
:100AE800031308167508F40004300310F40CFF3ED5
:100AF800031D792D08087406F039740688008812D9
:100B08000D30F400F40B862D831203138816081693
:100B18000F307505F40008087406F039740688006B
:100B280088120D30F400F40B972D831203138816E6
:100B380008008B13831603170814831203131F0866
:100B48003F3980389F00831603131F129F12C3304A
:100B5800831203139F05831603139F17831203132E
:100B68001F140B17831603130C178B178312031309
:100B78009F140800831203131E08F000F101700887
:100B8800E5007108E60008300310E50DE60DFF3EAC
:100B9800031DC82D831603131E08F000F101700809
:100BA80083120313E5070318E60A7108E6079F1482
:100BB80008000A3083120313A0000030A100660861
:100BC800A3006508A2000A128A11ED230A128A11ED
:100BD800831203132008CD3EA70021080318013E05
:100BE800FF3EA800A901AA01F92D08000A2EC73066
:100BF80083120313A000002EA00BFF2D032E01303B
:100C0800F4020030031CF503F5020A2E740875047B
:100C1800031D0F2E102EFB2D112E080006308A0002
:100C28000408840A8207003443343A3420342034D8
:100C3800203446343A342034203420344B343A3487
:100C4800203420342034003483120313A3002308F3
:100C5800A20006300310A20DFF3E031D2E2E210810
:100C680022077F39803E0A128A11CD210A128A1181
:100C78000800FC30831203138F0018308E007608AA
:100C880077040319482E492E502E0130F602003001
:100C9800031CF703F702502E08007E088A007F081D
:100CA80082000A128A1151260A128A118000840AC7
:100CB80004087D0603190034FF0A0319FE0A552E9D
:100CC80006308312031381007808790403196D2E06
:100CD8006E2E752E0130F8020030031CF903F9025C
:100CE800752E0800831203136308640403197D2E0C
:100CF8007E2E852E0130E3020030031CE403E4025B
:100D0800852E0800013407340034043400340034DC
:020D18000034A5
:04400E00D4E0FFFFFC
:00000001FF
